:1000000009C016C015C014C013C012C011C010C062
:100010000FC00EC011241FBECFE9CDBF10E0A0E677
:10002000B0E001C01D92A336B107E1F781D0C9C08D
:10003000E7CF80E090E040E330E2C09A242F2A9599
:10004000F1F7C098232F2A95F1F701968530910595
:10005000A1F78AE08093600088E28A95F1F708951D
:10006000C09A109261008EE1809360000895C0985C
:10007000C29A82E380936000089582E380936000D7
:1000800088E28A95F1F70895399A369A3699FECF23
:1000900024B135B1C9010895F7DFC99730F08091D7
:1000A00061008F5F8093610005C0109261008EE156
:1000B00080936000E9DF029730F4809162008F5FE7
:1000C0008093620005C0109262008EE18093600010
:1000D00080916100853018F088E280936000809103
:1000E0006200853018F088E28093600084E08A9591
:1000F000F1F70895C09A84E08A95F1F7C5DFC897B3
:1001000030F4809161008F5F8093610005C0109290
:1001100061008AE080936000809161008A3018F06D
:1001200084E180936000C09880E28A95F1F7089599
:10013000FF920F931F93B89ABA9A3E9A86B1866837
:1001400086B9C29882E3F82E08E21EE18091600031
:10015000843191F0853128F4882351F08A30F9F404
:1001600009C0883289F08233A1F08E31C1F40AC00F
:1001700060DFECCFBFDFEACFC09A1092610010932E
:100180006000E4CF89DFE2CFC098C29AF0926000AD
:10019000DDCF80936000802F8A95F1F7D7CF109242
:1001A0006000D4CF87B1836087B9369A3699FECF85
:1001B00024B135B1C90108953E9A86B1866886B9E1
:0601C0000895F894FFCF42
:00000001FF
